:020000040000FA
:060000000A128A11FC2F18
:100F7E008316031308148814881208138813831217
:100F8E000313881308138812881CCE2FCF2FEF2F30
:100F9E008817081788120B30F2002630F1005D30EA
:100FAE00F000F00BD82FF10BD82FF20BD82FDF2F2C
:100FBE008312031308134130F100EE30F000F00BF2
:100FCE00E62FF10BE62F0000831203138816EF2F86
:100FDE00081CF22FF32FCB2F881308138812CB2F58
:100FEE00CB2FCB2F0A128A11002883010A128A11E5
:020FFE00BF2F03
:04400E00D4E0FFFFFC
:00000001FF
