:020000040000FA
:060000000A128A11FC2F18
:100D4A0083160313081488140800700C8312031303
:100D5A00031C8813031888170800700C83120313E6
:100D6A00031C0813031808170800700C83120313D6
:100D7A00031C8812031888160800831603138812A6
:100D8A0008138813831203138812081388130800A0
:100D9A008312031308080139F200F3017208F00004
:100DAA007308F100D82E080083120313080C0139C6
:100DBA00F200F3017208F0007308F100E42E080053
:100DCA0083120313080D080D0139F200F3017208AA
:100DDA00F0007308F100F12E0800012FFF30F00730
:100DEA000318F10AFF30F107C730F200FC2EF20BAC
:100DFA00FB2EFF2E002F012F70087104031D062FF2
:100E0A00072FF32E082F0800F601F701D52FD52F4B
:100E1A000130F6000030F700D52F0A128A11C226D7
:100E2A000A128A110A128A11A5260A128A11023096
:100E3A00F6000030F700D52F0A128A11D9260A12B5
:100E4A008A1170037104031D2B2F2C2FD52F0A1220
:100E5A008A11E5260A128A1170087104031D362FB9
:100E6A00372FD52F0330F6000030F700D52FD52FB6
:100E7A000130F0000030F1000A128A11AA260A1283
:100E8A008A110130F0000030F1000A128A11B226EC
:100E9A000A128A110030F000F1000A128A11BA26E9
:100EAA000A128A110430F6000030F700D52FB83044
:100EBA00F4000B30F5000530F6000030F700D52FAE
:100ECA000130F0000030F1000A128A11F2260A12EB
:100EDA008A11FF30F4070318F50AFF30F507750881
:100EEA00803AFF0080307F02031D7D2F013074029B
:100EFA000318802F812FD52F0630F6000030F70017
:100F0A00D52FD52F0130F0000030F1000A128A11D6
:100F1A00AA260A128A110030F000F1000A128A1178
:100F2A00B2260A128A110130F0000030F1000A12CA
:100F3A008A11BA260A128A110730F6000030F70021
:100F4A00D52F0A128A11CD260A128A11700371044A
:100F5A00031DB02FB12FD52F0830F6000030F7004F
:100F6A00D52FD52F0030F000F1000A128A11AA26D7
:100F7A000A128A110030F000F1000A128A11B22610
:100F8A000A128A110030F000F1000A128A11BA26F8
:100F9A000A128A110230F6000030F700D52FD52F39
:100FAA007708003A0319DA2FD52F7608003A031981
:100FBA000D2F013A0319122F033A0319212F013A6F
:100FCA0003193D2F073A03195C2F013A0319652FBC
:100FDA00033A0319872F013A0319A62F0F3A031967
:100FEA00B72FD52FD52FD52F0A128A1100288301A2
:060FFA000A128A11092F02
:04400E00D4E0FFFFFC
:00000001FF
